:020000040800F2
:10000000C8040020CD000008B5100008F50D000858
:1000100000000000000000000000000000000000E0
:100020000000000000000000000000005D1100085A
:100030000000000000000000B71000088111000857
:10004000DF00000800000000DF000008DF000008FB
:10005000DF000008DF000008DF000008DF00000804
:1000600000000000DF000008DF000008DF000008DB
:10007000DF000008DF000008DF00000800000000CB
:10008000DF000008DF000008DF000008DF000008D4
:10009000DF000008DF000008DF000008DF000008C4
:1000A000DF000008DF000008DF000008DF000008B4
:1000B000DF000008DF0000080348854600F03CF838
:1000C00000480047FD180008C80400200448804785
:1000D00004480047FEE7FEE7FEE7FEE7FEE7FEE72F
:1000E000F9110008B900000830B50B4601460020A0
:1000F0002022012409E00D46D5409D4205D31D462E
:100100009540491B2546954040191546521E002D25
:10011000F1DC30BDD2B201E00270401C491EFBD2BE
:1001200070470022F6E710B513460A460446194602
:10013000FFF7F0FF204610BD064C0125064E05E0F6
:10014000E36807CC2B430C3C98471034B442F7D3F8
:10015000FFF7B6FF3C1A00085C1A00087047000061
:1001600070B5044600F0BAF80546601C02D0044899
:100170004068241800F0B2F8401BA042FAD370BDCA
:1001800000000020F0B5002388E001229A40944648
:10019000144022007ED04C68022C01D0122C0CD1CD
:1001A000DC08A40027183C6A5D07ED0E0F26AE4060
:1001B000B4430E69AE4026433E6205685E000324E8
:1001C000B4400F79A543BF07BF0FB7402F43076067
:1001D0004D68012D05D0022D03D0112D01D0122D17
:1001E0000ED18568CF68A543B7402F438760476825
:1001F0006546AF430D79ED06ED0F9D403D434560EB
:10020000C568A5438C68B4402C43C4604C68E400C6
:1002100043D59D08244CAD002F193C6E9D07EE0E72
:100220000F25B540AC4305252D07A84201D1002577
:100230000FE01E4DA84201D101250AE01C4DA84245
:1002400001D1022505E01B4DA84201D1032500E0A4
:100250000525B5402543144C3D66134D80352E6869
:100260004F689643FF0300D516432E606E684F68B3
:100270009643BF0300D516436E6025684E689543CC
:10028000F60200D51543256065684E689543B602B1
:1002900002D500E001E0154365605B1C0A68144666
:1002A000DA4000D071E7F0BD0018024000040050B1
:1002B00000080050000C00500069084000D00120E8
:1002C000704742690A4201D081627047816170477C
:1002D000002A01D0816170478162704701488068BF
:1002E00070470000000000200248816842688918B9
:1002F000816070470000002010B5084800240168A4
:10030000821511430160204600F00AF8002801D050
:10031000012401E000F028F8204610BD0020024032
:1003200070B50F4E002471680546002915D07D2058
:10033000C000FFF7D9FE01460A480068FFF7D4FE67
:1003400000F0F8FB002808D1042D06D2002229462F
:10035000401E00F01FF8356000E00124204670BD0B
:10036000000000200C00002008B5094801680122A7
:100370001143016000681040009005484038C26B8E
:1003800001040A43C263C06B0840009008BD00002E
:100390004010024010B501F0C9F910BD10B50F4C66
:1003A000216803225202914301432160C11FFF399A
:1003B000FA390ED10A480621006848430949FFF777
:1003C00093FE401C02E0002805D0401E61694905EB
:1003D000F9D4002010BD032010BD000000700040C3
:1003E0000C00002040420F00F8B5044600680026CB
:1003F000524D800358D5514800274038C06BC0008B
:1004000009D44E484038C26B01040A43C263C06B32
:100410000840012700904A48016882151143016095
:10042000FFF75CFF009005E0FFF758FF0099401AC6
:10043000022825D842480068C005F5D5E86903219F
:10044000090208400FD0A16981420CD0E86903215C
:100450000902EA698843012109040A43EA61EA6959
:100460008A43EA61E861C0070FD0FFF737FF0090C9
:1004700008E0FFF733FF0099411A3248814201D961
:10048000032609E0E8698007F3D5E869032109023A
:100490008843A1690843E861002F05D02748403808
:1004A000C16B02049143C1632078C00705D068691D
:1004B000616880088000084368612078800705D55E
:1004C00068690C218843A168084368612078400668
:1004D00006D56869032109038843E1680843686118
:1004E0002088400411D5686961698000800808434C
:1004F0006861012160698907884206D10F48403848
:10050000C168012212041143C1602088000512D580
:1005100068690321890388432169084368610121CF
:1005200020698903884206D104484038C168012205
:1005300012041143C1603046F8BD00004010024073
:100540000070004088130000F8B50F46060043D045
:100550004D4D28684007400FB84213D22868C008A4
:10056000C00038432860FFF7B9FE044605E0FFF7F6
:10057000B5FE011B4548814261D828684007400FFD
:10058000B842F4D13068424C81070DD5400704D5FC
:10059000A068072109030843A060A0680F21090291
:1005A0008843B1680843A0603078C00732D07068D3
:1005B00001280AD002280BD000280FD0344940313E
:1005C00003280ED0C969890704E02168890301E086
:1005D00021688901002906DB0120F8BD2168490551
:1005E000F8E7096AEFE7A168C908C9000143A160FB
:1005F000FFF774FE009006E0FFF770FE0099411AC5
:10060000224881421BD8A068382108407168C9007F
:100610008842F1D128684007400FB84217D91A48DC
:100620000168C908C90039430160FFF757FE054654
:1006300007E0FFF753FE411B1448814201D9032014
:10064000F8BD114800684007400FB842F1D130783A
:10065000400706D5A068072109038843F1680843CD
:10066000A06000F031F8A1683C2289091140094AD4
:10067000515CC906C90EC8400749086007480068B0
:10068000FFF74EFEF8BD0000002002408813000076
:1006900000100240DC1900080C00002000000020BF
:1006A0000648074900688968064A4904490F8900D5
:1006B000515CC906C90EC840704700000C000020FC
:1006C000001002401C1A000810B5204CA068204AF7
:1006D0008006400F16D0A0688006410F50100129F7
:1006E0000FD0A1688906490F022912D0A0688006A0
:1006F000400F042823D0A0688006400F032821D093
:10070000002010BD206801218004400F8140104668
:1007100012E0E1688B07E1689B0F4906490F491C0D
:10072000032B00D01046FFF7DFFCE1684904490EB7
:100730004843E168490F491CFFF7D6FC10BD012072
:10074000C00310BD7D20000210BD0000001002405B
:100750000024F400F8B504007ED020783827C007C4
:10076000EB4D002846D0A868E96838408907890F12
:10077000102802D008280BD001E0032908D001205E
:100780006268000482420AD129680143296015E0A9
:10079000286880032ED560680028DDD02AE0052374
:1007A00001211B0489049A422A6802D10A432A6063
:1007B000EAE782432A602868884328606068002846
:1007C0000CD0FFF78BFD064604E0FFF787FD801B8A
:1007D000642873D828688003F7D50BE0FFF77EFD07
:1007E000064604E0FFF77AFD801B6428F1D82868EC
:1007F0008003F7D42078800769D5A868E968384075
:100800008A070721920FC902102802D0002813D0AE
:1008100001E0022A10D0E068002846D0286888430A
:100820002169084328602868FF21013108432860B6
:10083000FFF754FD06462CE02A68520502D5E2680F
:10084000002A89D06A687F231B029A4363691B02CE
:100850001A436A60002800E08DE00ED128688843C2
:10086000216908432860286801218004400F8140E5
:10087000A848FFF739FCA8490860A8480068FFF7B6
:100880004FFD002877D122E0FFF728FD801B0228CA
:100890009FD828684005F7D568687F2109028843FA
:1008A000616909020843686011E02968FF2001308E
:1008B00081432960FFF712FD064605E098E0FFF747
:1008C0000DFD801B022884D828684005F7D42078C5
:1008D000934E00072ED5A8688006400F03280AD043
:1008E000A0690028306A16D0012108433062FFF762
:1008F000F5FC07460BE0306A80071BD5A06900288D
:100900009FD017E0FFF7EAFCC01B022870D8306ABE
:100910008007F7D50EE0400840003062FFF7DEFCAC
:10092000074604E0FFF7DAFCC01B022860D8306AF3
:100930008007F7D4207840076CD5A8680027800688
:10094000400F042818D0E86BC00008D4E96B0120E0
:1009500000070143E963E96B0140012700917148F9
:100960000168C90519D40168821511430160FFF7B8
:10097000B5FC00900DE083E0F06980074AD5A068DF
:1009800000287DD046E0FFF7A9FC0099401A022814
:100990002ED864480068C005F5D5A168012910D09B
:1009A00004200529F16911D049084900F161F16974
:1009B0008143F161A068002816D0FFF78FFC0090FA
:1009C0000EE0F06901210843F061F3E70143F161B2
:1009D000F7E7FFF783FC0099411A534881426DD82D
:1009E000F0698007F5D50EE0FFF778FC009007E08E
:1009F00064E0FFF773FC0099411A4B4881425DD8CF
:100A0000F0698007F5D4002F04D0E96B01200007BE
:100A10008143E963E069002877D0A9688906490F16
:100A2000022951D001263606022828680DD0B0438D
:100A30002860E86880088000E860E8683B49084072
:100A4000E860FFF74BFC04463AE0B0432860FFF74C
:100A500045FC074604E0FFF741FCC01B02282DD8E7
:100A600028688001F7D4616A206AA26A0843E16AB3
:100A7000120211430843216B0843E9682C4A00E045
:100A800041E011400843E860286830432860E86886
:100A9000012109070843E860FFF720FC044604E051
:100AA000FFF71CFC001B022808D828688001F7D536
:100AB0002BE0FFF713FC001B022801D90320F8BD2F
:100AC00028688001F5D420E00128F8D0E868226A7F
:100AD0008107890F914216D17021626A01409142CB
:100AE00011D17F21A26A09020140120291420AD16A
:100AF0001F214904E26A0140914204D1400F216B59
:100B00004007884201D00120F8BD0020F8BD000058
:100B1000001002400024F4000C000020000000201F
:100B2000401002400070004088130000FFFFFEEFFD
:100B30008C80C11F094910B5401E884201D901208F
:100B400010BD074C60610321081F00F0EFFD00207D
:100B5000A06107202061002010BD0000FFFFFF0002
:100B600000E000E030B5014660310A7F012A18D06C
:100B700001220A7724230246803214461360036858
:100B80001A681D686D086D001D6001235B079A439C
:100B90000023436600680260202020600B7718461F
:100BA00030BD022030BDF8B5054604466035287FCB
:100BB00001281DD0012028772422204680300746B6
:100BC00002602068066802685208520002602068CD
:100BD000826807235B069A430A438260204600F03E
:100BE00013FB206806602020386000202877F8BDBD
:100BF0000220F8BDF8B5054604466035287F012877
:100C00001CD001202877242220468030074602602D
:100C100020680668026852085200026020688268F4
:100C2000D200D2080A438260204600F0EDFA206824
:100C300006602020386000202877F8BD0220F8BD2B
:100C400070B5040006D020468030054600680028B4
:100C500002D007E0012070BD00217C200155204614
:100C600000F026F82420286020680168490849001F
:100C70000160204600F090FB0128ECD0A06A00281B
:100C800002D0204600F0F0FA206841680922D20222
:100C900091434160206881682A22914381602068E5
:100CA0000168012211430160204600F043FB70BD42
:100CB00010B586B0044614216846FFF732FA13498E
:100CC000206888421FD112480268012189030A4323
:100CD00002600068084005900D484038426B0121D1
:100CE0000A434263406B0491084005900320400290
:100CF0000090022001900020029003900520694698
:100D00000007FFF73FFA06B010BD000000380140B1
:100D100040100240FFB5074604468037386885B06A
:100D20000D46202864D1002D0CD00798002809D04A
:100D30000120A1680003814207D12069002804D165
:100D4000E80702D0012009B0F0BD204660300290D3
:100D5000007F01284CD00298012101770020B86063
:100D600021203860FFF7BAFA0190264640360798EE
:100D7000B0820798F0820120A1680003814202D16D
:100D80002069002802D00395002515E0002003907B
:100D900012E000228021204600F084FC002818D1B7
:100DA0000398002817D02168007888620398401CB7
:100DB0000390F08A401EF082F08A019B0028089878
:100DC0000090E6D100224021204600F06BFC002874
:100DD00008D00320B7E728882168C005C00D8862C5
:100DE000AD1CE6E720203860029900200877AAE7CA
:100DF0000220A8E7FEE7000070B5002500F08CF99E
:100E00001A4E80240120FFF7ABF901224021304621
:100E1000FFF75EFA80213046FFF74EFA002823D014
:100E200025430120FFF79CF9002240213046FFF7BF
:100E30004FFA6408E6D100F081F9002280213046A3
:100E4000FFF746FA0120FFF78BF9012240213046D7
:100E5000FFF73EFA0120FFF783F9002240213046D8
:100E6000FFF736FA284670BDA543DAE700040050C4
:100E700070B5054600F062F91E4E0024E80901D065
:100E8000012200E0002280213046FFF721FA6806A7
:100E9000050E0120FFF764F9012240213046FFF7DB
:100EA00017FA0120FFF75CF9002240213046FFF7D6
:100EB0000FFA0120FFF754F9641CE4B2082CDDD3CB
:100EC00000F02AF90120FFF74BF9012240213046BA
:100ED000FFF7FEF980213046FFF7EEF904460120C6
:100EE000FFF73EF9002240213046FFF7F1F9204696
:100EF00070BD00000004005010B500F01FF90E4C4A
:100F0000012280212046FFF7E3F9012240212046FB
:100F1000FFF7DEF90120FFF723F9002280212046A8
:100F2000FFF7D6F90120FFF71BF9002240212046E8
:100F3000FFF7CEF910BD00000004005010B500F01E
:100F4000FDF80F4C002240212046FFF7C1F9002296
:100F500080212046FFF7BCF90120FFF701F90122AB
:100F600040212046FFF7B4F90120FFF7F9F80122EC
:100F700080212046FFF7ACF90120FFF7F1F810BD02
:100F80000004005010B501212A2000F0E8F80221E9
:100F90002B2000F0E4F80D2000F08EF810BD0000CA
:100FA00070B586B014216846FFF7BBF81548426B50
:100FB00002210A434263426B0A400592416B0124BD
:100FC00021434163406B332520400F4EAD01059016
:100FD000002229463046FFF77BF900950025019451
:100FE0000295694630460395FFF7CCF82002009041
:100FF00005206946019502940007FFF7C3F806B083
:1010000070BD0000001002400004005010B51948E7
:1010100017490160E1214902416000218160C160FE
:101020000C2201614261816101220162D2034162AD
:10103000C2618162FFF704FE002801D0FFF78EF83D
:1010400000210C48FFF7D6FD002801D0FFF786F8F5
:1010500000210848FFF7A7FD002801D0FFF77EF820
:101060000448FFF77FFD002801D0FFF777F810BD97
:10107000003801402400002070B5FFF73DFF382004
:10108000FFF7F6FE0120FFF7F3FEFFF735FF3920EB
:10109000FFF7EEFE064D00240120FFF7ADFE2855B8
:1010A000641CE4B2062CF7D3FFF748FF70BD0000C4
:1010B000160000207047704710B50446FFF71CFF6C
:1010C0003820FFF7D5FE2046FFF7D2FEFFF714FFCA
:1010D0003920FFF7CDFE0120FFF78EFE0446FFF713
:1010E0002DFF2A2C04D003A000F068FC204610BD80
:1010F00004A0F9E74E4F204D505520466F756E64A1
:1011000021000000636865636B6564204D4D4138C4
:10111000343532204D50550010B50648802101600D
:10112000002141600121816001460348FFF72AF850
:1011300010BD0000B00000200004005010B50548AC
:101140008021016001214160816001460248FFF772
:1011500019F810BDB000002000040050704770B5B1
:101160000D460446FFF7C8FE3820FFF781FE2046F3
:10117000FFF77EFE2846FFF77BFEFFF7DFFE70BD20
:1011800010B5FFF7B1F810BD30B599B034216846FD
:10119000FEF7C7FF00240D940E940F941C2111A894
:1011A0001094FEF7BEFF01204002FFF7F7F802257A
:1011B000E801039000954020059008200A908003E4
:1011C0000B900795000304940C90089509946846C9
:1011D000FFF7C0FA07200D900F9402210E9510948E
:1011E0000DA8FFF7B1F901201190129411A8FFF793
:1011F000FBF819B030BD000001200249C00688602C
:101200007047000000ED00E0F0B513A106C985B0FD
:101210000192009112A206CA039202910446416E05
:101220004034002915D000688168806809014D0F9D
:10123000400F02AE315C6F46385CC000FEF754FFD1
:101240006085785D715DC000FEF74EFF208505B0BA
:10125000F0BD01206085F9E70101010307010000ED
:10126000080402040801010110B5018DC90707D067
:1012700001684A6801235B049A43C36A1A434A60BF
:10128000018D890707D501684A6801231B049A4329
:10129000036B1A434A60018D490707D501684A6804
:1012A00001239B049A43436B1A434A60018D09074B
:1012B00007D501684A680123DB039A43836B1A430D
:1012C0004A60018DC90607D50268916801231B0396
:1012D0009943C36B19439160018D890607D5016855
:1012E0008A6801235B039A43036C1A438A60018D69
:1012F000490612D503685A6801210905446C8A43DE
:1013000022435A60426C8A4207D102685168032323
:101310005B059943836C19435160018D090607D51C
:1013200001684A680123DB04C06C9A4302434A60A7
:1013300010BD0000FEB50546002680350446AE60AF
:10134000FEF7CCFF019020680068124F000709D516
:1013500001210097002249052046019B00F0A2F9D7
:1013600000280DD12068006840070BD501210097A7
:10137000002289052046019B00F094F9002801D045
:101380000320FEBD2020286068606034267700209E
:10139000FEBD0000FFFFFF01F8B50446806821692B
:1013A000E26908436169002611430843616E014305
:1013B00020680268B24B1A400A43026021684868FC
:1013C000032212039043E26810434860A169206A37
:1013D000226808439168AB4B194001439160206833
:1013E000C16A626A090909011143C162A64A2068FB
:1013F000A64990420CD148698007800F23D001286C
:1014000004D002281FD003281CD111E004201AE0C8
:101410009F4A90420ED148690C21084013D00428FD
:1014200011D0082802D00C280CD101E002200AE0DB
:10143000082008E09749884202D09749884201D1A4
:10144000002000E010200122D203E169D511934B66
:10145000934F91426FD1002806D0022835D004283E
:101460007AD0082869D17AE0FFF71AF976E00128E6
:1014700015D0022815D0032815D0042815D005282A
:1014800015D0062815D0072815D0082815D009280A
:1014900015D00A2815D00B2814D0012512E00225FA
:1014A00010E004250EE006250CE008250AE00A25D8
:1014B00008E00C2506E0102504E0202502E0402588
:1014C00000E08025294610461BE0606A002815D000
:1014D00001282AD002282AD003282AD004282DD077
:1014E00005282DD006282DD007282DD008282DD04E
:1014F00009282DD00A282DD00B2800D001252946F7
:101500001846FEF7F1FD616840004A088018FEF7B2
:10151000EBFD80B201461039B9420ED86049491C32
:1015200001400007400F08437FE00225E7E704255C
:10153000E5E70625E3E716E00EE08CE00825DEE7A8
:101540000A25DCE70C25DAE71025D8E72025D6E7C1
:101550004025D4E78025D2E7FFF7B6F80246606A57
:1015600000289AD083E7002806D0022835D0042826
:1015700074D0082879D174E0FFF792F870E0012860
:1015800015D0022815D0032815D0042815D0052819
:1015900015D0062815D0072815D0082815D00928F9
:1015A00015D00A2815D00B2814D0012512E00225E9
:1015B00010E004250EE006250CE008250AE00A25C7
:1015C00008E00C2506E0102504E0202502E0402577
:1015D00000E08025294610461BE0606A002815D0EF
:1015E000012825D0022825D0032825D0042825D07D
:1015F000052825D0062825D0072825D0082825D05D
:10160000092825D00A2827D00B2800D001252946F3
:101610001846FEF769FD61684A088018FEF764FD08
:1016200080B201461039B9421FD82168C8601DE058
:101630000225ECE70425EAE70625E8E70825E6E7C2
:101640000A25E4E70C25E2E71025E0E72025DEE7A0
:101650004025DCE702E008E08025D8E7FFF734F812
:101660000246606A0028A0D089E7012620460121B1
:101670004030418501850020E06620673046F8BD96
:10168000F369FFCFFFF4FF11003801404010024022
:101690000044004000480040004C00400024F4009A
:1016A000EFFF0000FFB581B017460E4604460A9DC5
:1016B00009E0681C07D0FEF711FE0499401AA84201
:1016C0000CD8002D0AD02068C169304688431AD052
:1016D0000020B842EDD0002005B0F0BD20680168C0
:1016E000FF22A132914301602068816849084900C6
:1016F00081602021204680300160416000206034FC
:1017000020770320E8E70120E3E700000FB410B5DD
:1017100003A9044B044A029800F03AF810BC08BC34
:1017200004B01847E1180008200000208307FF22BA
:10173000DB0E9A408907090E9940002808DB8308D0
:1017400009489B001B1818689043084318607047AD
:101750000007000F0838830804489B001B18D8694D
:1017600090430843D861704700E400E000ED00E0DA
:1017700002E008C8121F08C1002AFAD1704770475A
:10178000002001E001C1121F002AFBD170470000B8
:10179000FFB58DB00446002506E025280AD0109A32
:1017A0000F999047641C6D1C20780028F5D12846BD
:1017B00011B0F0BD00270121484A009700E007431F
:1017C000641C23780846203B98401042F7D12078CB
:1017D0002E2817D1042007436078641C2A280CD1D6
:1017E0000E98641C02C800910E900BE000990A222A
:1017F000514330394018641C00902078014630393C
:101800000929F3D920780028D1D0642808D0692884
:1018100006D075281ED0109A0F9990476D1C5BE07A
:101820000A200E99019001C90E91002802DA404267
:101830002D2102E0390504D52B216A4611720121C0
:1018400003E0F90704D02021F7E70BAE0B910DE080
:101850000021FAE70A200E99019001C90E91F7E7DD
:101860000199FEF741FC3031761E31700028F7D126
:1018700003A8801B20300190780701D5009801E073
:10188000012000900199884201DD401A00E000200B
:101890000027009006E002A8109AC05D0F999047BB
:1018A0006D1C7F1C0B988742F5DB04E0109A3020FA
:1018B0000F9990476D1C0099481E00900029F5DC97
:1018C00005E03078109A761C0F9990476D1C0199AD
:1018D000481E01900029F4DC641C65E7092801001A
:1018E00008B5694608707D23DB0001220248FFF736
:1018F00011FA002008BD000024000020FEF7FCFCC7
:10190000FFF742FCFFF74CFBFFF780FBFFF73AFBCA
:1019100009A000F053F80324A4020D4DFF26F5366C
:1019200021462846FEF7CDFC3046FEF719FCFFF7AE
:10193000A3FB00F00FF8F3E753544D333247503711
:10194000305242543620494943204D505500000042
:1019500000040050F8B5FFF78FFB1148114D0278D5
:10196000417813011943120601D5294309B20C4CE1
:10197000A41F21808378C2781E0132431B0601D543
:101980002A4312B262800679437937013B4330061D
:1019900001D52B431BB2A38003A0FFF7B7FEF8BD10
:1019A0001600002000F00000783A256420793A25DE
:1019B00064207A3A307825640D0A000010B5044698
:1019C00001E0FFF78DFF2078641C03490028F8D15F
:1019D0000A20FFF785FF10BD200000200000000056
:1019E00000000000000000000000000000000000F7
:1019F00000000000000000000000000001000000E6
:101A000002000000030000000400000006000000C7
:101A100007000000080000000900000000000000AE
:101A200000000000000000000000000001000000B5
:101A30000200000003000000040000005C1A00081F
:101A4000000000202400000070170008801A000821
:101A500024000020A40400008017000804000000F7
:101A600001000000000000000024F400000000005D
:101A70000000000000000000000000000000000066
:04000005080000B936
:00000001FF
